:020000040010EA
:100000000080002059011000E9171000EB171000C4
:10001000ED171000EF171000F1171000000000009E
:10002000000000000000000000000000F3171000B6
:10003000F517100000000000F7171000F917100066
:10004000FB171000FB171000FB171000FB17100028
:100050005D0610005D141000FB171000FB17100068
:10006000FB171000FB171000FB171000FB17100008
:10007000FB171000FB171000FB171000FB171000F8
:100080001D2D1000232D1000252C1000E12A10003A
:10009000FB17100041121000D1111000FB171000C7
:1000A000FB171000FB171000FB171000DD0F1000EE
:1000B0001D151000D9141000FB171000FB171000BD
:1000C000FB171000FB171000FB171000FB171000A8
:1000D000FB171000FB171000FB171000FB17100098
:1000E000FB171000FB171000FB171000FB17100088
:1000F000492E1000492E1000492E1000492E1000E4
:10010000492E1000492E1000C1791000492E100010
:10011000492E1000FB171000FB171000FB171000F2
:10012000FB171000FB171000FB171000FB17100047
:10013000FB171000FB171000FB171000FB17100037
:10014000FB171000FB171000FB171000FB17100027
:10015000FB171000FB17100068466FF382008546FE
:100160000148804701480047AD1A10007D16100075
:100170002DE9F04F85B0054602F030FD08F01AFB7E
:100180000446B5F9020008F015FB4FF0605108F085
:1001900065FB214608F062FB8346B5F9040008F0D0
:1001A00009FB4FF0605108F059FB214608F056FB5F
:1001B0008246B5F9060008F0FDFA4FF0605108F0EC
:1001C0004DFB214608F04AFB074607F009FF38A31C
:1001D000D3E900238046894608F0E0F9364D28B17E
:1001E0002B6801331E2B88BF00232B6000F00CFA14
:1001F000324E334C33682AF00041C01A20602BF095
:10020000004008F023FA27F0004108F01FFA4FF0F1
:100210007E5108F0D5FC002842D0002002F09AFD63
:100220002B68022B3FD842F2107322689A423AD9C7
:10023000244809F047FB022002F08CFD032002F065
:1002400089FD0F2002F070FD70B11F4809F0C0FB5E
:1002500000F0DAF930601D4809F0BAFB022002F024
:1002600079FD1B4809F0B4FB29681A4809F02AFBFC
:100270002168194809F026FB584607F0B1FE0446EC
:1002800050460D46CDE9028907F0AAFE2246CDE987
:1002900000012B46114809F015FB05B0BDE8F08FB1
:1002A00002F067FDBCE7022002F063FDC9E700BF72
:1002B0009A9999999999C93F18020020D80A002063
:1002C000D40A0020B8B41000CFB41000EBB4100072
:1002D000F9B4100013B510001FB510002DB51000B3
:1002E00000B503208FB000F056F8012000F052FA5C
:1002F000012002F02FFD1D4809F06AFB03A801F060
:100300005FF803A801F098F802F0F0FB20B181211A
:10031000174A184800F054FB01A903A801F09CF803
:1003200003A801F06FF8DDE90112134809F0CAFAD9
:10033000012002F01EFD022002F00CFD4FF4FA70C5
:1003400000F072F9022002F014FD32220B490A205B
:1003500002F030FC10B1064A9221DAE7084809F0B1
:1003600037FB00F025F830BFFBE700BF5AB510009F
:1003700070B5100086B5100094B510007101100022
:10038000C4B5100010B51C46114600201A4607F0EF
:10039000A9FC204610BD08B500F0B4F800F044F800
:1003A000002007F01DFBBDE8084007F051BA00002F
:1003B00008B500F065F807F041FB024B024A5A60AD
:1003C00008BD00BF0003004011E2B1024FF0FF3052
:1003D00070470020704708B50B680BB14868984714
:1003E000002008BD08B50C4A1378012B04D0672102
:1003F0000A4A0B4800F0E4FAB2F8CC30172B02D9C5
:10040000084A6B21F5E7013322F8330002EBC30001
:100410004160A2F8CC3008BD1C020020DEB51000FF
:100420000FB610007CB6100008B5124B1978F9B958
:100430001846D42208F00EFC024600F1080142F8EA
:10044000C81FC0F8D420021DC0F8D8204FF00112F8
:10045000C0F8DC200122084902704FF6FF70FFF758
:10046000C1FFBDE80840054940F60170FFF7BABF7B
:1004700008BD00BF1C020020D3031000D7031000EA
:1004800010B5094C2378012B0CD104F1D0010420C4
:1004900007F028F920B1054A7921054800F090FAC3
:1004A0000223237010BD00BF1C020020BCB6100048
:1004B0000FB6100038B5094B05461B780C4663B1E2
:1004C00004220823114640F6017007F059F8C0E9EC
:1004D0000054BDE8384007F06DB838BD1C0200205C
:1004E00038B50546064B1C6804B938BDA389AB4234
:1004F00003D123680BB1A06898476468F4E700BF94
:10050000FC02002038B5012383F310884FF0FF323E
:10051000314B3249C3F88020C3F88420C3F88820C7
:10052000C3F88021C3F88421C3F8882143F23E1226
:100530002B4B1A630A6B002AFCD03F2203211A635B
:1005400000220124274B9A701971274910335C50FF
:1005500010315A50254B1C68012CFCD10025244B2E
:10056000244A9D5010329C50234B244AC3F8B04972
:10057000C3F8304AD2F8AC3023F4883343F48053C4
:10058000C2F8AC3000F0D8F94FF45372144B204647
:10059000C3F89C20A3F5C0635B6803F03F035A1CBB
:1005A000174B1B68B3FBF2F34FF4FA62B3FBF2F3A1
:1005B000144A43F0C05313601022074BC3F8802144
:1005C0001A6000F0E9FF204609F00AFA85F3108866
:1005D00085F3138838BD00BF00E100E000E8004269
:1005E00000070040041300408C4F0202E062024208
:1005F0001813004008500202500000420000014061
:100600000000002000040040014B1868704700BF44
:1006100000030020034B5868C0F30800003018BFE7
:100620000120704700ED00E008B50146FFF7F2FF3A
:1006300020B1074A7E21074800F0C2F9064B18682E
:100640001A68121A8A4200D308BD30BFF8E700BF0B
:10065000D1B61000ECB6100000030020024A136867
:1006600001331360704700BF0003002037B50E4C04
:10067000E56AA847C20701900ED4019BDB060DD4A2
:10068000636A984768B1019B13F0200F14BF6FF0A5
:100690000800002003B030BD30BFEAE76FF007006C
:1006A000F8E76FF00600F5E734B8100038B5184CDD
:1006B000237813F004032AD1164DC4E90133C4E9A9
:1006C000033363611448AB68984720B16021134A33
:1006D000134800F075F92B6902209847014610B1C4
:1006E0000E4A6321F4E7AD6A0320A84710B10B4A14
:1006F0006721EDE72178022001F00301A84710B13E
:10070000064A6A21E4E7237843F00403237038BDE6
:100710000400002034B810006507100058B710001E
:1007200070B7100010B50B4C00202369984720B11A
:100730007421094A094800F043F9E368984710B169
:10074000054A7721F6E7064B1A7860F382021A70A1
:1007500010BD00BF34B8100058B7100070B71000BB
:1007600004000020030670B5054601D5FFF7DAFF47
:10077000064C63694BB1064B5B6A98476369C4E9F1
:100780000305201DBDE87040184770BD040000201F
:1007900034B8100037B5124C0546FFF787FFE36AFF
:1007A0009847C30718D40F4B012D1A780FD0022D8C
:1007B0000FD0012161F3010202201A701978A36A97
:1007C00001F00301019303B0BDE830401847022156
:1007D000F0E742F00302EFE76FF0010003B030BD35
:1007E00034B81000040000202DE9F347124F0546ED
:1007F0000E4690469946DDF828A0FFF757FFFB6AA2
:10080000984710F0010011D1BB690C4C0193E060D6
:10081000C4E90156C4F814A0019C4B464246314637
:100820002846A44602B0BDE8F04760476FF00100DB
:1008300002B0BDE8F08700BF34B81000040000200B
:100840002DE9F34105460E4617469846FFF7E2FEAE
:1008500070B90446434600943A4631462846FFF7AD
:10086000C3FF034648B902B0BDE8F041FFF7FEBE42
:10087000054A9F21054800F0A3F8023301D130BF9B
:10088000E8E702B0BDE8F081D1B6100070B7100003
:100890002DE9F347124F05460E4690469946DDF87E
:1008A00028A0FFF703FFFB6A984710F0010011D161
:1008B0007B690C4C0193E060C4E90156C4F814A0B4
:1008C000019C4B46424631462846A44602B0BDE84C
:1008D000F04760476FF0010002B0BDE8F08700BF4D
:1008E00034B81000040000202DE9F34105460E46FF
:1008F00017469846FFF78EFE70B9044643460094AB
:100900003A4631462846FFF7C3FF034648B902B0CE
:10091000BDE8F041FFF7AABE054AC921054800F02D
:100920004FF8023301D130BFE8E702B0BDE8F081F3
:10093000D1B6100070B710000228F8B528D8174AB1
:10094000174B145C174A1B5C32F81070164A32F8C9
:100950001060164ADBB2D37002F1077202F546321C
:1009600002F57C721368012BFCD1114A114D1369F9
:100970003C4323F00F0343F00903136102232B6070
:1009800001F0A6F80C4B0D4A6C60EE601A60F8BDE1
:1009900040F20176002707240623DAE7E3B71000C8
:1009A000E0B71000E6B71000ECB71000BC00014043
:1009B00000050040000100400014004081000100DB
:1009C000194D032383B506460F469046A946174C9A
:1009D000A360174B42461868009733461549C06814
:1009E00008F008F9A36813F03C0F02BFA36843F0B6
:1009F0000103A3602868112803D92C2311381B6830
:100A00009847A36813F03C0F02BFA36823F00103CB
:100A1000A360D9F8000040001128DAD92C2311383E
:100A20001B689847D5E700BF000000200007004082
:100A300048000020F2B71000800000F18040D0F89C
:100A4000003713F03C0F02BFD0F8003743F001032A
:100A5000C0F8003770470000034B82B0186883B2BB
:100A600063F30F0002B0704730B8100000207047E9
:100A7000014B5868704700BF14030020014B5868B1
:100A8000704700BF04030020002808DB012342094F
:100A900000F01F0003FA00F0014B43F822007047FA
:100AA00000E100E000280DDB0122430900F01F00F7
:100AB00002FA00F0044A203342F82300BFF34F8FBC
:100AC000BFF36F8F704700BF00E100E0002809DB33
:100AD0000122430900F01F0002FA00F0024A6033CD
:100AE00042F82300704700BF00E100E0112803D95D
:100AF0002C2311381B6818477047000010B520B32D
:100B000019B3164A137A9B0722D5536813F00103D1
:100B100021D15360546844F001045460546863F375
:100B200041045460546844F0040454600C4A9060DA
:100B30001846C2E900130B490A6822F47F0222F02A
:100B4000010242F001020A6010BD6FF00400FBE7F1
:100B50004FF0FF30F8E76FF00100F5E704030020E5
:100B600014030020000B004010B520B319B3164A3F
:100B7000137A9B0722D5536813F0010321D15360E8
:100B8000546844F001045460546863F341045460B1
:100B9000546863F3820454600C4A90601846C2E9BA
:100BA00000130B490A6822F47F0222F0010242F08E
:100BB00001020A6010BD6FF00400FBE74FF0FF3048
:100BC000F8E76FF00100F5E70403002014030020AC
:100BD000000B004070B5002931D0002A2FD020F43E
:100BE00000447F2C2BD81A4D2C7A64072AD56C68C8
:100BF00014F0010429D16C606E6846F001066E6045
:100C00006E6846F002066E606E6846F004066E601E
:100C1000104EC6E90024104A307373731368B16034
:100C2000E96823F47F03400043EA0143C0B240F087
:100C3000010023F0010313601061204670BD6FF0C6
:100C40000400FBE74FF0FF30F8E76FF00100F5E735
:100C50000403002014030020000B004070B500299D
:100C60002FD0002A2DD020F400447F2C29D8194DF4
:100C70002C7A640728D56C6814F0010427D16C60C5
:100C80006E6846F001066E606E6846F002066E60A1
:100C90006E6864F382066E600F4EC6E900240F4A48
:100CA000307373731368B160E96823F47F0343EA18
:100CB00001434000C0B223F00103136010612046DD
:100CC00070BD6FF00400FBE74FF0FF30F8E76FF006
:100CD0000100F5E70403002014030020000B00408E
:100CE00010B5014620B1022812D06FF0030010BDEC
:100CF0001B20FFF7D7FE1B20FFF7E8FE124B196001
:100D0000124B1A7A596022F002021A720020EEE7A2
:100D10000E4C217ACB0713D511F00201F6D11B201E
:100D2000FFF7D4FE1B20FFF7AFFE0A22064B1A6026
:100D30000122074B5A61237A43F002032372E5E74D
:100D40004FF0FF30D3E700BF000B0040040300204A
:100D5000806001423F22054B00205A611A6141F236
:100D600011121A67024B1872186070470007004092
:100D70000403002010B50B4A137A13F001030FD1BE
:100D800043F2104408494C6143F211440C6140F2B3
:100D900005440C67C2E90133D3600123106013726C
:100DA000002010BD04030020000700402DE9F84397
:100DB0007F4C267AB50740F1F1800138032800F214
:100DC000ED80DFE800F0021953B16368D80700F145
:100DD000E880784B7848794C5A69D2060AD51A6867
:100DE000090201F4FE4122F4FE4211431960002081
:100DF000BDE8F8834460EFE76368DB0700F1D1806A
:100E00000139022900F2D0806D4B53F821706D4BEF
:100E10001D68284607F0C2F880463846894607F024
:100E2000BDF80022684B07F033F902460B464046F6
:100E3000494607F09FFB002840F0B68007EB4707C4
:100E4000B5FBF7F55B4A013D5B495C48E5605369DA
:100E5000DF0609D5136846F0040623F47F0343EA4E
:100E6000054515602672C2E74860F0E7514A1B202D
:100E70001368564D23F002031360FFF713FE41F28F
:100E800011122A6703226A612A614E4A09271668ED
:100E90004F4AB6FBF2F60520FFF7CEFD3046FFF7CE
:100EA00025FE6B69304613F03C0F08BF6B6907F1F4
:100EB000FF3704BF23F001036B61FFF717FE17F044
:100EC000FF07E8D1414B30461A6912F03C0F02BFD0
:100ED0001A6922F001021A61FFF708FE0520FFF7E8
:100EE000ABFD3046FFF702FE0420FFF7A5FD43F2FD
:100EF0001042364B1B205A6143F211421A6140F2F4
:100F000005421A672B4A136843F002031360FFF788
:100F1000DDFD1B20FFF7B8FD2368002B3FF467AF12
:100F20004FF48070984762E76368D9077FF55FAF39
:100F30001B20FFF7B7FD636813F0020F1D4B25D090
:100F400008221D491D485A605A6952051CD50021C6
:100F5000204B1B20C3E9001199601973636861F38A
:100F600000036360636861F3C3036360636861F3F4
:100F700004136360636861F345136360FFF7A6FDC4
:100F80001B20FFF781FD32E74860DDE71A6822F099
:100F900001021A600122104B5A61D8E74FF0FF306E
:100FA00026E76FF0010023E76FF0030020E700BFA2
:100FB00004030020000B00400003004011E2B102D6
:100FC00024B810000000002000000A400007004084
:100FD000A0860100140300208060014270B45C4BC5
:100FE0005C495868C0F34000002852D04A695C68E8
:100FF000E60730D515060AD55A6842F020025A6035
:10100000554A5061C0201B682BB370BC184754056B
:101010000CD5524906C98A4203D0002A14BF0220C7
:1010200012205A686FF300025A60ECE7560719D590
:10103000550612D5494BD3E9001201398A42464977
:1010400002F101042ABF48600860C860414988680D
:1010500099685C60885470BC70479405FBD53E4B22
:101060001860F8E7D007F6D43C4AD2E90040A04225
:1010700004D29568461C5660285C886051688C4292
:10108000E9D1517B0120344A09B11060C9E71061F0
:10109000E1E748695A68D207DDD5060608D501217F
:1010A0005A68802042F020025A602B4A5161AAE718
:1010B00010F008051DD05A6800F0040402F0040284
:1010C00094424FF00101244A11D01160002110F028
:1010D00002001FBF5A68202042F008025A601F4ACF
:1010E0008C42516014BF0422082210438BE75160E8
:1010F000B1E710F400741ED0184AD2E90064B4427B
:1011000012D2450708D40120134B186089689368F0
:101110002018506019559EE7C0079CD49368601C46
:1011200050601B5D8B6096E701200B4A50605A6847
:1011300065F3000278E742058DD5084A50681268C9
:1011400090420CBF012082205A6864F300026BE7D2
:1011500004030020000B00408060014214030020C3
:101160000022084B1A719A68074B9343074B02BF42
:101170005A6842F020025A605A6822F4E0725A60BB
:10118000704700BF24030020010010000008004049
:101190000D4BF0B599681D4609B95869F0BD00229C
:1011A00010460A4B5B6803F01F030133DB08DEB215
:1011B000D4B2A64202D80B44AB60EFE78C5CD700F8
:1011C000BC4020430132F3E7300300200008004018
:1011D00070B5184D2B79F3B1174B1A69920703D4E8
:1011E0001C6914F0010406D0012202246A711A69F4
:1011F00042F003021A61114A1369116801338B42EC
:10120000136109D2FFF7C4FF0B4B98605A6842F490
:1012100080725A603CB970BDD2689342FAD1FFF730
:101220009FFF44F001042B68002BF4D02046BDE85A
:1012300070401847240300200008004030030020BD
:101240002DE9F04121490B79002B3CD0204BD86887
:101250001A68904237D21F4A1069800703D4106978
:1012600010F0010006D001204871106940F0030021
:1012700010610220174A5C68D7688CB9DA681C686C
:101280000132A242DA601CD11B699A4219D1FFF7E0
:1012900067FF40F001000B68ABB1BDE8F0411847B3
:1012A0000024526802F01F020132D208A242E5D0A7
:1012B0005E68751C5D60E50027FA05F53570013440
:1012C000F4E70028E7D1BDE8F08100BF2403002047
:1012D0003003002000080040014B1888704700BF11
:1012E000480300202022044BC3F88020BFF34F8F17
:1012F000BFF36F8F704700BF00E100E01B4B37B5B5
:10130000821E9A4204D95321194A1A48FFF758FB02
:10131000194D297841BB4FF4FA6344086343174AD7
:10132000009317484FF6FF7300F058FB154B164A11
:101330005B68126803F03F030133B2FBF3F3134A17
:10134000934203D0124A4FF49E71DEE72022114BE4
:1013500044F0C0545C60104B0220C3F880211A6036
:1013600000F01AF901232B7003B030BDFCFFFF0120
:1013700064B81000B9B8100070030020D912100032
:101380004C030020000100400000002040420F00FC
:101390002BB910000004004000E100E008B5064B46
:1013A0001B7843B1022000F021F9FFF79BFF2022B8
:1013B000024BC3F8802108BD7003002000E100E06B
:1013C00010B50446B8B10C4B1B781BB94FF47A70BA
:1013D000FFF794FFFFF786FFBFF34F8FBFF36F8FC9
:1013E00000230649C4E908332385204600F006FBA4
:1013F0002022034B1A6010BD700300204C03002014
:1014000000E100E010B5FFF76DFFBFF34F8FBFF3B2
:101410006F8F00F001FB054B1C681CB9FFF7BEFF86
:10142000034B1C702022034B1A6010BD4C0300209C
:101430007003002000E100E008B5FFF753FFBFF3A1
:101440004F8FBFF36F8F00F0EBFA2022014B1A6031
:1014500008BD00BF00E100E000F0E8BA38B50125A2
:10146000114A138801339BB21380104B1C6804B9D6
:1014700038BD236A93B194F829307BB9237F6BB1CF
:10148000204600F0E2FA48B1D4E9083194F8282067
:1014900084F8295022B11846FFF70CF86468E6E793
:1014A00008469847FAE700BF480300204C03002095
:1014B00000280DDB0122430900F01F0002FA00F0B2
:1014C000044A203342F82300BFF34F8FBFF36F8FDE
:1014D000704700BF00E100E010B50D490B79ABB1DA
:1014E0000C4A536950680133834253610AD1002387
:1014F0001D200B71FFF7DCFF0B683BB1BDE810400E
:1015000001201847D268D25C034B5A6010BD00BF5F
:101510007403002084030020000C004070B50F49C4
:101520004B79CBB10E4B1A691868824214D20D4820
:10153000551C846898681D6184541A691B689A4216
:101540000AD100231C204B71FFF7B2FF0B681BB1BF
:10155000BDE870400220184770BD00BF7403002032
:1015600084030020000C004030B50025800000F10D
:101570008040C0F80056039D92B2C0F82056049DEA
:1015800042EA034321F40141C0F84056C0F86036F6
:10159000C0F8001630BD0000C30705D56FF001028A
:1015A0000E4B1A6001225A60810705D56FF00102C7
:1015B0000B4B1A6001225A60420705D56FF00102F9
:1015C000084B1A6001225A60030705D56FF001022B
:1015D000054B1A6001225A60704700BF008200422A
:1015E000808200420083004280830042C30742BFE2
:1015F0000122094B1A60810742BF0122074B1A6082
:10160000420742BF0122064B1A60030742BF012274
:10161000044B1A60704700BF008200428082004283
:101620000083004280830042114A10B511680346CE
:1016300009B910491160002B10680DDD033323F048
:1016400003030D49C4188C420ED907F0CDFA0C23C0
:1016500003604FF0FF3010BD06D0033B23F00303BF
:101660000449C4188C42F0D303441360F3E700BF6D
:101670009C0300206C3B0020007C002007B54FF04D
:10168000FF32474B0124C3F88020C3F88420C3F8FD
:101690008820C3F88021C3F88421C3F8882184F30B
:1016A0001088404A404D41489542414A08D9404B34
:1016B0003D4A834226D252F8041B43F8041BF8E744
:1016C0000821996000213B4B3B4E9951043E9951B2
:1016D000203E99511D655A65821A92089A65374BCA
:1016E0005C6030BF1A68002AFBD108212C4AC2F87E
:1016F0008811C2F88810BFF34F8FBFF36F8FDB687C
:10170000012BD4D04FF48073254C2D4E23604FF421
:10171000F8532C4DC6F8E0302B4B2C49EA1A0193B4
:101720002B4B9208009300231846FFF71DFF30BF94
:10173000D6F8E030002BFAD04FF48073C4F8803133
:10174000C4F88030BFF34F8FBFF36F8F214B1B69FD
:10175000012B18D00020FFF767FF00261E4D1F4CFD
:10176000641BA410B44211D100261D4D1D4C641BF6
:10177000A410B4420FD1FEF7B3FDFEE743F8042BEB
:10178000AB42FBD3E6E7104B0022F9E755F8043BE8
:1017900098470136E6E755F8043B98470136E8E7F5
:1017A00000E100E0FEFF150088E9100018020020AB
:1017B0000400002080050040A4AA000200B90042F5
:1017C000000600406C3B0020180200202B0CCA00D1
:1017D0000400004000DC00427001100070011000A5
:1017E0007001100070011000FEE7FEE7FEE7FEE763
:1017F000FEE7FEE7FEE7FEE7FEE7FEE7081A013830
:1018000010405208013290422CBF00200120704746
:10181000414011420CBF01200020704710B50B1A47
:101820005408134001349C423CBF431A1340FFF755
:10183000E5FF08B1584210BD1846FCE708441040C7
:10184000704788424FEA52028CBF431A0B1A01328A
:10185000934204D9884294BF0020012070478842F7
:101860002CBF002001207047904288BF531C10B548
:1018700084BFB0FBF3F403FB14008A423EBF013285
:10188000B1FBF2F302FB1311431A5842584110BD49
:101890000023D0E90021C0E9003362B1136883421C
:1018A00007D1116070475A68824201D15960704770
:1018B0001346002BF7D17047036810B50446D3E9EF
:1018C00007209047012323770023A060C4E9053354
:1018D00010BD88424FEA520310B503F101038CBFDB
:1018E000441A0C1A9C4201D2401A04E0884203D9DF
:1018F0001144091AC84310BD01321044F4E700290D
:1019000005DD121A914208DD881A0138704705D0AA
:101910004B4298423CBF0130801808447047000099
:1019200000230161013151B9012B0ED80B4B03602B
:101930000B4B43600B4B83600B4BC360704701F054
:1019400001021344DBB24908EDE7084B0360084B82
:101950004360084B8360084BEFE700BF111810008D
:10196000FD1710001D1810003D1810006918100018
:1019700043181000D3181000FF18100038B5154692
:101980008B680A69044681682846984700280FDD5D
:10199000236808499B69A5605843A369CA1A904205
:1019A00022BF62695B1A0132034428BF6261A361EE
:1019B00038BD00BF00CA9A3B38B5037F044663B107
:1019C0000568D5E907309847237F02462BB1291DCA
:1019D0002046BDE83840FFF7D1BF38BD70B50D4691
:1019E0001646044648B10022194640F8042BFFF77A
:1019F00097FF049B2562C4E9063670BD59B150B10A
:101A00000023C0E90233C0E90433836103770B6824
:101A1000016043600860704708B1FFF739BF704745
:101A200018B103680BB1FFF747BF704738B50D46D3
:101A3000044648B141B103680BB1FFF7BDFF143450
:101A400094E8030085E8030038BD10B5044608B9E2
:101A5000002010BD03680BB1FFF7AEFF6269E368B9
:101A60009A4207D8F4D1A0692369984234BF002074
:101A70000120EEE70120ECE77FB558230C46154620
:101A80001B686A460421984740B96A46042352F805
:101A9000041BCEB2A64203D1090C298004B070BD4C
:101AA000013B13F0FF03F2D10120F7E7054A064995
:101AB0001368A3F5C343283B8B4284BF034B1360D9
:101AC000704700BF00000020580ADC02404B4C0069
:101AD000444B37B51D68444C05F007056A1E032AC0
:101AE00020D8DFE802F002141A1D4FF400432360EF
:101AF0003E4A236893423E4A32D8002313703D4940
:101B00000A6922F00F0213430B6103B030BD3A4B58
:101B1000DA783A4BB3FBF2F3E9E75B785A1CF8E763
:101B20009B78FBE7364B374A196A374BC1F30521DF
:101B3000D3580DF10602012B0BD13448FFF79CFF5F
:101B400028B94FF47A73BDF806205343CFE7304BE2
:101B5000CDE73048FFF790FF0028F2D02E4BC6E7C4
:101B60002E498B4203D8012313700023C7E72C4969
:101B70008B4201D80223F7E727498B4203D804237D
:101B800013700223BBE727498B4203D80723137046
:101B90000323B4E724498B4203D809231370052398
:101BA000ADE722498B4201D80B23F7E718498B4256
:101BB00006D80F23002D13700CBF072306239EE7C2
:101BC0001B498B4203D813231370072397E7194946
:101BD0008B4295BF17232F231370137094BF0823D4
:101BE00009238CE7000100400000002040420F0064
:101BF0000401004000050040BC000140006CDC0214
:101C0000001300402013004028510202B0180800C1
:101C10000024F40090180800404B4C0080841E0003
:101C2000C0C62D0000127A0080969800001BB700F5
:101C3000002D310100366E01002337B5084C8DF8B8
:101C40000730206085680DF107020123902140785C
:101C5000A84723689DF807201A7003B030BD00BF65
:101C6000A00300201346074A30B40546106830B17F
:101C700044680A46A446294630BC4078604730BCD8
:101C8000704700BFA00300201346074A30B4054642
:101C9000106830B184680A46A446294630BC4078B2
:101CA000604730BC704700BFA0030020002373B51D
:101CB0000C4C054620688DF8073088B186680123F2
:101CC0000DF1070232214078B04748B920688DF8FD
:101CD0000750446801230DF1070232214078A047E4
:101CE00002B070BDA0030020002337B5ADF804306A
:101CF000094B0446186860B18568022301AA38219F
:101D00004078A8479DF805209DF8043043EA022357
:101D1000238003B030BD00BFA0030020002337B5EF
:101D20008DF80730074B0446186848B185680123D1
:101D30000DF107023A214078A8479DF8073023703B
:101D400003B030BDA0030020084B37B51C6854B168
:101D50008DF80700656801230DF1070254216078B2
:101D6000A84703B030BD2046FBE700BFA00300201A
:101D7000084B37B51C6854B18DF80700656801231E
:101D80000DF1070264216078A84703B030BD2046FA
:101D9000FBE700BFA0030020002337B5ADF80430F7
:101DA000094B0446186860B18568022301AA7021B6
:101DB0004078A8479DF805209DF8043043EA0223A7
:101DC000238003B030BD00BFA0030020002337B53F
:101DD0008DF80730074B0446186848B18568012321
:101DE0000DF1070290214078A8479DF80730237035
:101DF00003B030BDA0030020002337B50193074B8B
:101E00000446186840B1042385680DEB030297214E
:101E10004078A847019B236003B030BDA003002099
:101E2000084B37B51C6854B18DF80700656801236D
:101E30000DF107029B216078A84703B030BD204612
:101E4000FBE700BFA003002002232DE9F04790B07C
:101E500000220D4603A98DF805300C4611238DF89C
:101E600004200292ADF80620013B13F0FF0304F8B2
:101E7000012BF9D14A4A08931268002A00F08280A7
:101E8000431E1F46103013F8012F834201F8012B27
:101E9000F9D19DF80C302A2B76D19DF80D30652BA9
:101EA00072D19DF80F400DF10600C4F3C104FFF795
:101EB00073FF012C51D142F21213BDF806209A4251
:101EC00068D10120049EFFF7ABFF012204460DF10B
:101ED00005013420FFF7C6FE0122044401A9942025
:101EE000FFF7C0FEE4B20444012201A99520FFF7E8
:101EF000B9FEE4B2044414F0FF041DD14FF0100801
:101F0000103D4FEA5519C5F38205A1450CBFAE46F9
:101F10004FF0080E002307EB0802734524D14FEA67
:101F2000830A2BB11FFA8AF208A99620FFF79AFEBE
:101F30000134A145D044E8D202A8FFF75DFF029B1F
:101F4000B3422AD101220DF1050134208DF805207C
:101F5000FFF788FE10B0BDE8F087032C17D1BDF85D
:101F6000062042F6AD53AAE708A9101D01EB830C29
:101F7000014611F801A991420CF801ABF9D10133E6
:101F80000246CAE71846E5E76FF00200E2E76FF0A5
:101F90000400DFE76FF00300DCE76FF00500D9E72E
:101FA000A0030020F0B587B00D46002202A910233F
:101FB0000E468DF80720013B13F0FF0301F8012BBB
:101FC000F9D1FFF7C1FE2846FFF7D2FEFA24274FCA
:101FD0000DF10700FFF7A2FE9DF80720AA4239D1B4
:101FE00038683246846810233B214078A047204B54
:101FF0009DF808201A709DF809205A709DF80A2053
:102000009A709DF80B20DA709DF80C201A719DF8DB
:102010000D205A719DF80E209A719DF80F20DA71EB
:102020009DF810201A729DF811205A729DF8122006
:102030009A729DF81320DA729DF814201A739DF895
:1020400015205A739DF816209A739DF81720DA739D
:1020500007B0F0BD3B68802A0CBF322001201B690D
:10206000013C984714F0FF04B2D1B9E7A003002067
:10207000A403002070B506460D4614461F2101201A
:10208000FFF790FF124B59781A7842EA012232800A
:10209000D9789A7842EA012272801A799979327154
:1020A0005A7942EA01222A80197ADA7942EA01222F
:1020B0006A805A7AD97A2A719A7A42EA012222806F
:1020C000597B1A7B9B7B42EA01226280237170BD9F
:1020D000A40300202DE9FF4100232B4D07462C6867
:1020E0000E468DF80730002C46D0284B5C211A781C
:1020F0008DF808205A788DF809209A788DF80A20F2
:10210000DA788DF80B201A798DF80C205A798DF831
:102110000D209A79DB798DF80E208DF80F30082389
:10212000D4F804800DEB03026078C04704463846BB
:10213000FFF70AFE04443046FFF71AFEFA27E4B21E
:10214000044464B20DF10700FFF7E8FD9DF8072095
:1021500020445FFA80F8B2424FFA88F40CD02B6822
:10216000802A1B690CD132209847A8F1030044B2A1
:10217000013F17F0FF07E5D1204604B0BDE8F0812C
:1021800001209847F4E700BFA0030020B40300201B
:10219000094B02881A70120A5A7042889A70120A01
:1021A000DA7082881A71120A5A71C28803209A71F1
:1021B000120ADA71FFF78EBFB4030020094B0288C0
:1021C0001A70120A5A7042889A70120ADA7082885B
:1021D0001A71120A5A71C28803209A71120ADA71AE
:1021E000FFF778BFB4030020F8B5074603250024A5
:1021F000067B437B103606EB032600F05BFD314681
:102200003846FFF721FE044464B21CB1013D15F0CD
:10221000FF05F2D12046F8BD2DE9F3471F28984667
:102220008A4691469DF82830BDF82C70BDF8306084
:1022300007D80844012BC5B206D05CB244B1FF2BCD
:102240001BD06FF0010027E02846FFF72FFD044662
:10225000A5F14001C9B2BAF1000F10D0BAF1200FB8
:10226000EFD16846ADF80090ADF80280ADF804708B
:10227000ADF80660FFF7A2FF0CE01846E5E76846F8
:10228000ADF80090ADF80280ADF80470ADF80660CE
:10229000FFF77EFF204440B202B0BDE8F0870000A7
:1022A00032292DE9F04780468A4616461F463ED918
:1022B000204D2B885BBB2846FFF716FD04462B8874
:1022C000002B31D01C49088889461A1A924520DB18
:1022D00032803222B0FBF2F302FB13004146328817
:1022E000C0B2FFF7D1FCB9F800203388044413448E
:1022F0009AB22B8864B29B1A9BB2A9F800203B804B
:1023000013B9A9F800302B802046BDE8F0870024DF
:10231000D5E70AEB00029A1A322ADDBF333B1B1ABB
:102320003380A6F800A0D4E733803B80ECE76FF061
:102330000104E9E7BE030020BC030020F8B51E46F7
:102340000B8805460C461046002B00F0B281296828
:102350000A78262A00F06C8100F28D800F2A00F0A6
:10236000A88066D8082A26D033D8042A1ED852B2AC
:10237000002A00F04D81AC4A92789A4200F28C809B
:10238000022333700B7803708A784B7843EA022378
:1023900043800A79CB7843EA022383808A794B7998
:1023A00043EA0223C380CB790372A3E0062A00F03C
:1023B0003F8100F231819C4A12799A426CD8042301
:1023C00033700B7803708A784B7843EA022343809A
:1023D00090E00B2A6DD0CED30D2A00F01D81EAD9F2
:1023E000914A127A9A4257D8082333700B780370B7
:1023F0008A784B7843EA022343800A79CB7843EA10
:10240000022383808A794B7943EA0223C3800A7AC4
:10241000CB7943EA022303818A7A4B7A43EA022387
:1024200043810A7BCB7A43EA022383814B7B83730C
:1024300060E0192A16D8162A03D2122A04D8112AC3
:10244000CED307233370E4E0142A32D0B3D9764ACE
:10245000D2789A4220D8032333700B7803704B78DC
:10246000437047E01F2AA6D0C0F0F480212A13D37E
:10247000242A80D99FE7352AE9D04DD82D2A00F0AB
:10248000CB8010D82A2A0AD8292ABFF474AF272A69
:1024900000F0C280282A8ED06FF001000AE12B2ABA
:1024A00007D02C2AF7E7322A30D8312AC9D22F2A6E
:1024B00096D15D4A52789A42EED8012333700B7858
:1024C00003708A784B7843EA022343800A79CB78F9
:1024D00043EA022383808A794B7943EA0223C3804B
:1024E0000A7ACB7943EA022303818A7A4B7A43EA58
:1024F0000223438109783F2900F2C9804B4B53F8EE
:102500002130002B00F0CB809847C8E0332A3FF4FD
:1025100052AF342ACDD0BFE7F72A49D8F62ABFF404
:102520004AAF3E2A1CD83A2A8BD32E3AD2B23E4F1B
:10253000327017F802C0BE469C45ADD800270B7814
:1025400003701EF802C0BBB20CF1FF3C634507F1FB
:102550000107CFDA11F803C0034483F801C0F0E7A4
:102560003F2A3FF428AFF52A96D12F4AD27A9A42D1
:1025700092D80B2333700B7803704B7843708B78B1
:102580008370CB78C3700B7903714B7943718B796E
:102590008371CB79C3710B7A03724B7A43728B7A56
:1025A0008372CB7AC3720B7B03734B7B4373A1E7BC
:1025B000FB2A17D8F92A1BD31B4A927A9A423FF674
:1025C0006BAF0A2333700B780370D1F8013043608E
:1025D000D1F805308360D1F80930C360D1F80D30EF
:1025E000036187E7FD2A7FF6E6AEFE2A7FF454AF4B
:1025F0000D4A527A9A423FF64FAF092333700B7857
:1026000003704B7843708B788370CB78C37071E71D
:1026100032700B7803706DE7034A52799A423FF6A5
:102620003BAF0523CCE600BF2C0000204004002077
:10263000284A92799A423FF62FAF062333700B78DF
:102640000370CB788A781B0443EA02234A78134349
:1026500043604FE70E3AD2B21E4F327017F802C0F5
:10266000BE469C453FF618AF00270B7803701EF856
:1026700002C0BBB20CF1FF3C634507F10107BFF696
:1026800039AF11F803C0034483F801C0EFE70B1D15
:10269000DBB2012B0FD8104B1B6803B1984732787F
:1026A0000C492B68885C03442B608A5C23889B1A46
:1026B00023800020F8BD01F10A03DBB2012B02D810
:1026C000054B5B68E9E7FE2901D0F829E7D141789D
:1026D000024B14E72C00002040050020C00300201E
:1026E0000378F63B072B1AD8DFE803F00E17191909
:1026F000191904100B4A136840881B0C1B04034370
:1027000013600B6000207047074AF4E7054A1388FE
:10271000418843EA01431360F4E7034AF7E76FF0A7
:1027200001007047480500204C050020F0B51E460A
:10273000002385B0082E0C468DF8070011468DF851
:102740000F3002D816B900243AE0082632465C2041
:10275000FFF788FA9DF8073007460F2B33D90F2370
:102760008DF807309DF80730360106F070061E43DD
:1027700001220DF1070154208DF80760FFF772FA6E
:1027800044F0800605463046FFF7F2FA2C18FA2589
:102790003C4464B20DF10F00FFF7C0FA9DF80F3012
:1027A0002044C7B2B3427CB20AD0802B0ED1322073
:1027B00000F07DFAF81E44B2013D15F0FF05E9D1A5
:1027C000204605B0F0BD002BCCD1BCE7012000F0C5
:1027D0006EFAF1E7002337B50228CDE9003318D8A7
:1027E0000F241A4A4D1C105611F9132032B1012A38
:1027F00004D001320DD10DF8034001E00DF80320A3
:10280000042B16D015F9132062B1012A04D001322D
:102810000AD06FF0020017E01DF8032042F010020A
:102820000DF803200133DFE71DF8032062F00F02EB
:10283000F6E700F1200108236A46C9B20120FFF73C
:1028400075FF00EAE07040B203B030BD07E210004F
:10285000F0B5427889B002F03F0412F0400200F176
:10286000020301A826D006460027FAB2944208D8EF
:1028700008AB03EB4404002304F81C3C884709B070
:10288000F0BD13F8012B013702F0F00C1509BCF173
:10289000900F02F00F028CBF37353035092A8CBFFC
:1028A00037323032357072700236DEE713F8015B72
:1028B00085540132D5B2AC42F8D808AB1C44DAE7F3
:1028C0003F280DD811F0DF0F0AD100F01F00084497
:1028D000054BC1B253F8210010B943F821207047CD
:1028E0006FF00100704700BF4004002010F0DF0FC0
:1028F0000AD1A0F1200253425341054A52F8230065
:1029000010B942F8231070476FF00100704700BF04
:1029100040050020112807D8054A52F820301BB97D
:1029200042F82010184670476FF00100704700BF52
:10293000C003002010B502460B4641B138B10C6807
:10294000187C0221A047002818BF022010BD0120DA
:10295000FCE737B505460C46D1B1C8B10B680DF19F
:1029600007020621207C984710B1022003B030BD39
:1029700023680DF106020721207C98470028F4D136
:102980009DF806209DF8073043EA02232B80EDE7EF
:102990000120EBE737B504460D46C9B1C0B10DF1D2
:1029A0000600FFF7D6FF88B929460DF10500FFF7AD
:1029B000C1FF58B99DF80510064BBDF8062053F825
:1029C00021305343EA68B3FBF2F3236003B030BD18
:1029D0000120FBE70CE2100000232DE9F041254C1B
:1029E000254D207888B0C0F596718DF80530ADF88A
:1029F00006300DF10602214B89B228440295FFF7FB
:102A00004FFCBDF8062023781D4F13441B4EADF834
:102A100006300DF1050303AA0DF1060102A8FFF728
:102A20008DFC9DF8053080460B2B03D1394603A859
:102A3000FFF70EFF3388B8F1000F07D1002B0CBF52
:102A400000221222BDF806109142E2DC0022227020
:102A500023B1BDF8061023788B4202D308B0BDE83D
:102A6000F081029A501C0290581C20701278EA548F
:102A7000F1E700BF50050020DC0A002058050020C7
:102A8000112D10000149FFF72BBE00BF5405002097
:102A90000D297FB516D104AA02A96846FFF7EAFA04
:102AA00020B10A4A5C210A48FDF78AFF094BBDF8AC
:102AB00002201A80084BBDF80A201A80074BBDF887
:102AC00012201A8007B05DF804FB00BF70B510003B
:102AD0003EE210003E0000204000002042000020A6
:102AE00000210148FDF7E6BCD92910004FF400226F
:102AF00030B5294B87B0C3F88020BFF34F8FBFF3A9
:102B00006F8F0023254D26486B6240F60933AB6575
:102B10000123EB65FFF768FB0446002838D12B6CD6
:102B20002B6C9B05FCD56A461E4B5968186803C27E
:102B3000197A53F8090F1170596803AA03C21B7A56
:102B4000694600201370FFF745FE044600BB694646
:102B50000220FFF73FFE0446D0B903A90120FFF78A
:102B600039FE0446A0B91049FFF7C0FE044678B903
:102B70000E490D20FFF7CEFE044648B94FF400225F
:102B8000054B0146C3F8802109481A60FDF792FC05
:102B9000204607B030BD00BF00E100E00007004064
:102BA00083B910002CE21000852A1000912A100031
:102BB000D929100030B5154685B00A4620210446B3
:102BC000FFF77EFE40B9CDE90100009003462A469A
:102BD00020212046FFF720FB05B030BD014B1888AF
:102BE000704700BF3E00002013B50B4C23688BB12B
:102BF000003018BF0120094B1A6882420AD01860C1
:102C00000023074901A80193FFF7C4FE23680121AF
:102C10000198984702B010BD7005002044000020C4
:102C20005C050020034B0448196C01F40051FDF7CA
:102C300041BC00BF00070040E92B100073B51546EA
:102C40001E468DF80710002301220DF107010446EE
:102C5000FDF74AFE10B140B202B070BD03463246E5
:102C600029462046FDF7ECFDF5E72DE9F8435C1C0D
:102C700007462046894690461E4605F0CDFF05468C
:102C800090B13246414600F8019B05F0D5FF22463F
:102C9000002329463846FDF727FE0446284605F05E
:102CA000C3FF60B2BDE8F8834FF0FF30FAE7FDF7ED
:102CB000BBBC000070B5124B124C04256360124B74
:102CC0002046A360114B2646236128236370FEF73C
:102CD000B3FF0120FFF7A4F8013D15F0FF0502D175
:102CE0006FF0060070BD3046FFF770F82378832B35
:102CF00003D03220FDF798FCEEE70020F2E700BF9A
:102D00006B2C1000740500203D2C1000AF2C10001F
:102D10000146014806F0D6BDB2E210000F20FDF7D3
:102D2000DFBB0C20FDF7DCBB0F2806D1084B186C6D
:102D300080F40040C0F3C03070470C2801BF044B42
:102D4000186C80F48050C0F3003018BF002070472A
:102D500000070040800000F18040D0F8003713F0F9
:102D60003C0F02BFD0F8003743F00103C0F8003732
:102D70007047800000F18040D0F8003713F03C0F1E
:102D800002BFD0F8003723F00103C0F800377047C6
:102D900072B6034B5A891043588162B6704700BF20
:102DA0008022002008B50120FFF7F2FFBDE80840AF
:102DB00001F046B972B6034A538923EA00035381EE
:102DC00062B670478022002008B5074B5B89DB079D
:102DD00009D501F073F9032004F0CAFABDE80840F0
:102DE0000120FFF7E7BF08BD80220020124B2DE92C
:102DF00010481B7883B10023104C114922680968E0
:102E0000E0FB01234FEA522B4BEAC35BCBF30803F1
:102E100023605846BDE810880A4B5A68024402EB0A
:102E2000002202EBC002540AA2EB44225A601E2385
:102E3000584310EB040BECE78C05002090050020B4
:102E40008805002080220020F8B52B4E2B4D04274A
:102E50003468002C4FD0600702D52F60FFF7A2FF27
:102E6000E10705D501232B60FFF7AEFF04F0A2F9BF
:102E7000220603D580232B6004F09CF923070CD590
:102E80000823A0072B6048BF02234FF0000044BF77
:102E90002B6024F0020401F0A5F8E1050DD54FF4F4
:102EA0008073A2072B6048BF02234FF0010044BF8C
:102EB0002B6024F0020401F095F8A30703D5022348
:102EC0002B6001F0B5F8A00504D54FF400732B601A
:102ED00003F0CCFE610603D540232B6004F06CFDAB
:102EE000E20603D510232B6001F0D4FAA306AFD578
:102EF00020232B60ABE7F8BD1015004018150040EB
:102F0000C36A10B51C0448BF40F27124026B48BF6D
:102F1000C3F30D034FEA42024CBF04FB0322D21855
:102F200090F84A301A44214B1B683BB1934205D2BA
:102F30001F4C2478ECB9002908BF1A4640F27121D1
:102F4000B0F854400E2A01FB04F16FF41C741346D0
:102F500038BF0E232144994204D91649096851B15A
:102F6000994208D890F85A3043F0100380F85A304C
:102F700010BD1A46E2E743F68E518A420DD940F25F
:102F8000712203F51C73B3FBF2F36FEA43436FEA5C
:102F9000534382889BB20AB101339BB25C22B0F8E2
:102FA00050104A4304495352C362E1E7740C0020B5
:102FB0003C0C0020400C002006220120F0B540F21D
:102FC00071275C24838DD0F828E007FB0131B1FB29
:102FD000F7F6B0F8783006EB0E0C5C431F4B07FB9E
:102FE0001616E35A86859AB215B2002DBCBFC2F3FD
:102FF0004D0307FB131140F2712790F87130A8BF01
:10300000A1EB5201C91AB1FBF7F307FB131173448B
:1030100023F078438360036D002D1B89B8BFC2F392
:103020000E02C3EB4316B8BFC2EB421503EB860397
:10303000B8BF02EB850203EB83039BB2B8BF02EB80
:10304000820213449BB24382054B89B22CF0784C28
:10305000C0F828C0E1528182F0BD00BF06220120E5
:10306000F221012070B506460D460C2000211446C1
:1030700004F0CEF90572447246600146BDE8704026
:10308000014804F0E9BC00BF540C002010B5002139
:103090000446082004F0BCF944600146BDE8104035
:1030A000014804F0D9BC00BF4C0C00200B4B1A683F
:1030B00052B140F271225B68588A9B68B0FBF2F013
:1030C000184420F0784070474FF00042044B1A60DB
:1030D0001A68002AFCDB1868704700BF440C002007
:1030E0001C15004010B570B1094B9C683CB1636879
:1030F000834206D100222146064804F0C5FC204642
:1031000010BD2468F2E70348BDE8104004F0B4BCE9
:10311000440C00204C0C002070B504460E461546A9
:1031200072B690F883306BB903210C2004F070F96B
:103130000123446006724572014684F883300648D4
:1031400004F08AFC62B62020FFF722FEBDE8704042
:10315000062004F00DB900BF640C00205C23584326
:103160000D4A10B5835A9BB2C3F3042403F03F0306
:1031700001FB0431252491FBF4F304FB1311835A62
:103180000029B8BF25319BB209B223F03F03194390
:1031900089B2815210BD00BF0222012010B5114B2F
:1031A000044693F82C3080F85830002380F85630CD
:1031B00080F85B3080F84530838680F85C3072B6EA
:1031C000083004F045FC04F1100004F041FC04F167
:1031D000180004F03DFC04F1200004F039FC62B654
:1031E00010BD00BF080C002030B50A4B0A4A93F806
:1031F000283032F8134032F8112042F20F71074B99
:103200005B685D1E8D4288BFA31843432920584345
:10321000000C30BD440C00209CE610001C00002077
:1032200038B50446B0F8623000F12805B0F87C00EB
:1032300094F86E1003FB000080B2FFF7D5FF70B169
:10324000A0655C23B4F8782094F875105343054AC0
:1032500028469B5A6365BDE83840FFF751BE0123FD
:10326000A365EEE7062201202DE9F74F90F87F30A5
:103270000446884600F1280B0093042B26D8DFE88B
:1032800013F00500470027048400D501C64BC74D45
:103290005B6993F8211001B3C54B9B7BB3BB06F070
:1032A000C3FB00F00F00431C03F01E00A268B4F83B
:1032B0007C301344034423F07843A360EB7A03F09B
:1032C0000F0343F4C14343F02003238294F88200A8
:1032D00080F01000C0F3001038E0FFF7E7FE6B7BD2
:1032E000E26D03F00F0343F4204343F050032382C5
:1032F000131A23F07843B3F1806FA060E260E5D940
:10330000801A30F07843E1D008461FE00020CDE776
:1033100090F86030EBB15C23B0F878205343A54AB5
:103320009B5ADB0B15D090F8613093B1A24B02F29F
:10333000DE221B88128843EA024383629F4B1B886C
:10334000C3F30903C3F51C738385002003B0BDE8F4
:10335000F08FA16DB4F87C30626D0B4423F078419E
:1033600040F27123B2FBF3F3904A0B44527823F0FE
:10337000784302F00F0242F4204242F05002A1656D
:10338000A160E3652282E360A0E7B0F878008C4E8C
:1033900056F82020B2F86030190405D5C3F30E03A7
:1033A000A2F8603003F03AFBB4F8780056F8202019
:1033B000B2F860305F0405D523F48043A2F8603092
:1033C00003F0FAFAB4F85C20B4F86010531E9BB214
:1033D000994240F0F98094F86D30002B00F0F480B1
:1033E0001420022BA07500F0D580032B00F0D780AD
:1033F000012B40F0AB806568B4F87C00B5F87CC068
:10340000B4F878E0604505F1280756F82E300BD166
:10341000B4F85E90B5F85E00814505D1B3F85890D8
:10342000B3F85A00814505D0B3F8600040F0800041
:10343000A3F8600094F87030A5F85C2085F870302F
:1034400004F1480205F14803A5F8601092E8030072
:1034500083E8030004F1300205F1300392E8030031
:1034600004F1400283E8030092E8030005F1400301
:1034700083E8030004F1380205F1380392E8030001
:1034800083E80300A5F878E094F8823040F27129CF
:1034900085F88230012385F86D30B4F868305846DD
:1034A000A5F86830B4F86A30A5F86A3094F874303A
:1034B00085F8743094F8733085F87330B4F87A3046
:1034C000226DA5F87A30AB682A65A3EB0C0323F0D4
:1034D0007843B3FBFCF1A3600CFB1133D3806B8A00
:1034E000A2F804C0B3FBF9F109FB11339BB2002B26
:1034F0000CBF0B464B1C138194F88130394685F87C
:103500008130602205F098FB638A0027B3FBF9F94C
:103510005C23B4F87820676053432A4A6F602F65B4
:1035200023F80290B4F87830204656F82330B3F8E8
:103530005420B3F8521001F061FA28463A46394651
:10354000FFF7EAFDB4F8780001F052FCB8F1000F83
:1035500004D00121B4F87800FFF700FEA268B4F8A7
:103560007C30134423F07843A3600023A4F8623036
:10357000B4F8603094F8822001339BB29607A4F827
:1035800060303ED5052B7FF6A1AE42F0100284F8E4
:1035900082209BE6B4F8780001F04AFCD6E720468A
:1035A00001F0C2FAD2E700BF880C0020B5E210009B
:1035B0001C00002044220120202501202425012078
:1035C000880D00200A2201209142BFD11423A37547
:1035D00094F86D30022B0ED0032B0FD0012B04D1A9
:1035E000002203212046FFF73DFD002384F86D30C3
:1035F000A4F85C30AAE700220421F3E700220521A9
:10360000F0E7B8F1000F7FF461AE204601F0EFF96A
:1036100000287FF45BAE94F88230009913F0050F18
:1036200018BF0421204601F03DFA4FE6DA49B0F810
:103630007800894651F82020B2F8603013F4004F2A
:1036400005D0C3F30E03A2F8603003F0E7F9B4F835
:10365000780059F82020B2F860305D0405D523F4D5
:103660008043A2F8603003F0A7F95C23B4F8782017
:10367000CA4853431E5AF60B3DD0B8F1000F40F034
:10368000E0812021C64A995272B6236B002B40F08C
:103690008181236C002B40F07D81A36C003318BF27
:1036A000012362B694F8842094F88210002A00F076
:1036B0007F8194F885301BB161F07F0184F882101E
:1036C0001FFA83FAA4F862A00AF101065C22B4F89A
:1036D0007810B44D4A43B449515A555B125A41EAE5
:1036E0000541C2F30902C2F51C72A2850022A16243
:1036F00084F8752002E001261FFA88FA94F882C047
:103700001CF010027FF4E2ADB4F87C00B4F86270F3
:103710001CF0080F00FB0707BFB200F09881B4F857
:103720005CE0B4F860100EF1FF35ADB2A94240F094
:10373000968194F86D20002A00F089811425022AD0
:10374000A57500F08081032A00F08581012A40F0F0
:103750007E816568B4F8782005F128030193B5F8F7
:103760007C3059F8222098420BD1B4F85E90B5F81D
:103770005E00814505D1B2F85890B2F85A008145F3
:1037800005D0B2F8600040F08000A2F86000A5F813
:10379000601005F1280204F1280103C982E8030042
:1037A00005F1480204F1480103C982E8030005F16C
:1037B000300204F1300103C982E8030094F870205C
:1037C00004F1400185F8702005F1400203C982E848
:1037D000030005F1380204F1380103C982E803004F
:1037E000B4F86620A5F8662094F86C2085F882C0AD
:1037F00085F86C20012285F86D2094F86E20A5F8DC
:103800005CE085F86E20B4F8682094F86C00A5F8A8
:103810006820B4F86A20216DA5F86A2094F8712018
:10382000B5F878C085F8712094F8722085F8722078
:1038300094F8742085F8742094F8732085F8732028
:10384000B4F87A202965A5F87A2040F2E2426A822B
:1038500042435C206A6594F8812000FB0CF085F8F7
:1038600081206A7EDFF844C19A1A92B220F80C20B7
:10387000B4F8660094F86C20D4F808C002EB40025B
:103880001744B5F87C20B5F812E0BCFBF2F002FB5F
:1038900010C040F2712C8A80BEFBFCF2B1F8089097
:1038A000C88090B28145BFB20BD20CFB12EC1FFA5C
:1038B0008CFCBCF1000F0CBF844600F1010CA1F898
:1038C00008C04FF0000960220199584605F0B4F98C
:1038D0004A46C4F80490A4F8629049462846C5F8C0
:1038E0000490C5F85090FFF717FCB4F8780001F089
:1038F0007FFA94F86E103846FFF776FC40F271219B
:1039000094F86C2001FB02005C22B4F87810A065EA
:103910004A4323495846525A01216265FFF7F0FA9B
:10392000012284F86C90A4F8669084F875203946DA
:103930002046FFF743FBB4F8602016440022A4F8A9
:103940006060A4F86220BAF1000F05D00FFA8AF186
:10395000B4F87800FFF702FCB4F85C30B4F86020EB
:10396000013B9BB29A4208D194F86D302BB194F888
:10397000823043F0080384F8823094F8823099074B
:1039800040F19480052A7FF6A1AC43F0100384F83F
:1039900082309BE4012384E6880D0020442201202C
:1039A0000622012042220120402201200C22012077
:1039B0002BB911F0090F02D194F86F304BB10023ED
:1039C000474AA4F86230D27B84F876204FF0000A90
:1039D0007CE6444AB4F85E3094F86E5092F82820A1
:1039E000013B1FFA83FA55EA020304D1BAF5E17FDD
:1039F00028BF4FF4E17A94F86D207AB1B4F85C20D6
:103A0000B4F86070551EADB2BD4207DDD21B023A5C
:103A10005245134628BF53461FFA83FABAF1000FE6
:103A20003FF454AE94F876204AB961F07F010AF170
:103A3000010684F88210A4F862A0B6B246E6013A04
:103A4000C2E7B2465AE6B4F8780001F0F1F9204630
:103A5000FFF7E6FB6BE7204601F066F8F7E77145F4
:103A60001FD11421A17594F86D10022915D00329D6
:103A700015D0012905D10321A4F866202046FFF7BF
:103A8000F1FA94F8822022F0080284F882200022C1
:103A900084F86D20A4F85C20D9E70421EEE7052125
:103AA000ECE72CF0080C84F882C0D0E7B8F1000FE6
:103AB0007FF40CAC204600F09AFF00287FF406AC9F
:103AC00094F88230009913F0050F08BF0321A9E58F
:103AD0008368043323F078438360FFF7F7BB00BFAC
:103AE0001C000020440C002038B504460D4620463A
:103AF00003F036FA012805D072B62046FFF7C6FA61
:103B000062B638BD25B1A37D1E2B9CBF0133A375C2
:103B100001212046FFF7A8FB02460028E7D12046F6
:103B20000121FFF79FFABDE83840052003F020BCD3
:103B30002DE9F041044603F033FF94F87F30042B65
:103B400040F0C18094F882301A0700F1BC801F0653
:103B500004D494F88430002B00F0B580657EB4F86E
:103B60007C70054425F07845A3687A199B1A574A5A
:103B700023F07843934200F2A680A36A5B1B23F0F4
:103B80007846B74200F29F8072B6236C2BB194F84E
:103B9000823043F0040384F8823021464C4803F01D
:103BA0009AFF804640B92046FFF79CFA08B103F01F
:103BB0007FFC204603F0D4FA62B6B8F1000F40F063
:103BC0008280B6FBF7F6B4F87C30B4F8780006FBD8
:103BD0000332A36AB6B29B1A23F07843A362B4F807
:103BE00060307142013B9B1BA4F8603009B2FFF7C3
:103BF000B5FA94F88230304603F07F0384F88230BF
:103C000094F86E10FFF7F0FA5C22B4F8783031497E
:103C10005A43535A9BB21E0442BF40F27126C3F36B
:103C20000D037343A3EB40000D2822D9B0F5005FCC
:103C300007D340F2712300F51C70B0FBF3F040F4A1
:103C4000004083B25352B4F87C60204F6065314627
:103C50002046FFF7B3F9A368EB1A23F07843BB4281
:103C600009D8B4F862300133A4F86230FFF7D8FA0B
:103C7000EDE70E20E5E7B4F86210B4F86030B4F870
:103C800078000B440133A4F8603009B2FFF766FAFC
:103C9000B4F85C2094F88230B4F86010013A92B223
:103CA00003F0F703914284F8823006D194F86D2036
:103CB0001AB143F0080384F882302046BDE8F04191
:103CC0000121FFF711BFBDE8F08100BF00BB30004C
:103CD000440C002006220120B1F8602043892DE920
:103CE000F0419A4206460C4635D1B1F878204E4B49
:103CF00053F822108288C388B4F87C0052009042A6
:103D000003F1010309D1B4F85E00984205D1B1F87E
:103D10005850B1F85A00854205D0B1F8600040F023
:103D20008000A1F86000A4F85E30A4F87C203189FE
:103D3000204600F067FF7389A4F85C30012384F803
:103D40006D3094F8823023F0080343F0010384F8C7
:103D50008230BDE8F081602002F078FF054600283F
:103D6000F7D02346024604F12C0153F8040B8B4292
:103D700042F8040BF9D105F12800FFF70FFAB4F867
:103D800078303189A5F87830B38828465B00A5F8EB
:103D90007C30F3880133A5F85E3000F033FF042354
:103DA00085F87F30B4F8643094F86E10A5F864306C
:103DB00095F8823085F86E1043F0010385F8823063
:103DC0004FF6FF736B827778B6F80280B4F87C0008
:103DD00008EB070300EB430080B2FFF705FA40F25F
:103DE000E2437B4394F87120A8659B1A01226B651E
:103DF000738984F86D2094F88220A4F85C3042F036
:103E0000010184F88210013BB4F860109BB2994222
:103E100008BF42F009026560A4F8668084F86C70FF
:103E200008BF84F8822094E7880D0020F8B55C2351
:103E3000B0F8782056495343564A04469D5A595A79
:103E40009F5A04329B5A2D0A05EB11251806EDB234
:103E5000BFB207D535B9A37D1E2B01D80133A37599
:103E6000012073E094F88230D90613D45A0607D59E
:103E700023F0400384F8823094F87F30012B02D87D
:103E800094F88130A3752DB994F87F30002B3ED083
:103E9000012B42D094F87E1004F12800691AC9B2AF
:103EA00000F028FC94F87F10022960D094F87E205E
:103EB0000121AA1AD2B22046FFF7D4F8364B013DB1
:103EC00093F898341D446B4203F0070305F007058F
:103ED00058BF5D420C23EDB25D43304BEB5AC3F348
:103EE000001384F86F3094F87F30012B07D194F8D9
:103EF000602022B117F0FF0F18BF84F86130002353
:103F0000052084F87E3003F033FA01201DE0244BB5
:103F10005B6993F82130002BBCD1FFF7C7F8214B28
:103F2000A0605B78204603F00F0343F4204343F086
:103F300050032382E36DE36003F012F80646002885
:103F4000A8D12046FFF7A2F83046054694F8823003
:103F500013F0300611D180B131462046FFF784F9C5
:103F6000A8B131462046BDE8F840FFF7BDBD05F0D9
:103F700001022046FFF776F8B5E7DB0607D535B92D
:103F800001222046BDE8F8401146FFF7C5B8F8BD4C
:103F90004822012046220120A80D0020B829012036
:103FA000880C0020B5E2100038B55C230446B0F858
:103FB0007820283053430A4A9D5A2D0B294600F099
:103FC00099FB94F87E3020462B4484F87E302A46B4
:103FD0000021FFF747F8BDE83840052003F0C8B9D5
:103FE000F621012038B505460F4803F045FD04468B
:103FF000C8B103F0B5F88DB194F8823043F04003B6
:1040000084F882302046FFF711FF084B93F8C83040
:104010004BB1BDE83840012003F0AAB9238A9B0BBD
:1040200018BF2582EEE738BD440C0020880C002024
:10403000024B186808B1FFF7B7BF7047440C002067
:1040400010B5194C236823F000432360174B186800
:10405000FEF7CCFE40F27122154991F82A3018443F
:10406000B0FBF2F2C2EB421302EB8303C0F51C700B
:1040700003EB8303034498B298B901234FF41C70F7
:10408000013281F82A300B4B1A6043F8040C236884
:10409000094A43F0080323600123136042F80C3CF3
:1040A00010BD0023EDE700BF30150040381500407B
:1040B000440C00204415004018150040034B1A68BA
:1040C000034B1A600122034B1A70704798050020B9
:1040D0000C1500409405002038B540F6030330F875
:1040E000082C05469A42A0F10C040DD040F60403BA
:1040F0009A421DD06FF400631A44052A13D8DFE8F2
:1041000002F031312748124010F8043C3F2B11D8FF
:10411000013BDBB22949D808095CA3EBC00341FA93
:1041200003F3D907E6D42046BDE8384003F05ABA75
:104130003E23EDE7572B0BD8403BDBB21F4AD90893
:104140000A44127AA3EBC10342FA03F3DA07EAD571
:1041500015F8040C00F06AF80028E4D0437803F066
:10416000030309E035F8040C30B300F029F8002807
:10417000D9D08378C3F30113012B0ED0E3B1022B06
:10418000D1D135F8063C072BCDD81B0243F00503EF
:104190000AE0287800F05AF8DEE735F8063C072BED
:1041A000C1D81B0243F009039BB225F8063C284600
:1041B000BDE8384003F0FEB90823F6E7780C00208C
:1041C00030B5C0F30905800A012811D0032811D0A9
:1041D000042811D0052811D0082811D03F2820D15B
:1041E0000523114A02EBC30358685C8898B930BDB7
:1041F0000023F6E70123F4E70223F2E70323F0E7C5
:104200000423EEE730F823200133C2F30902AA4267
:1042100002D10846EBE700239AB2944200EB8301F7
:10422000F0D80020E3E700BFC4E210000022064BF4
:1042300013F81210814202D103EB420070470132A1
:10424000092AF5D10020704728E410000022064B0F
:1042500013F81210814202D103EB42007047013281
:104260000C2AF5D1002070473AE4100070B50378AD
:1042700013F0F80308D001291AD000221346D4B253
:104280008C4203D3184670BD1A46F8E7042C865CAE
:1042900002D116F0E00F0DD1002446FA04F505F026
:1042A000010501342B44082CDBB2F6D10132E6E7DC
:1042B0000023E7E72623E5E7054BC208134493F8FC
:1042C0003B30A0EBC20043FA00F000F00100704761
:1042D000880C0020024A13680360536843607047EB
:1042E00052E41000032303700B70084B93F838203E
:1042F000D2075CBF93F83920027093F838209207F8
:104300005CBF93F83A300B70704700BF880C0020F8
:10431000F0B54FF6FF76D3898BB05B00ADF8103067
:10432000138A14465B00ADF81230B1F864300D46C4
:104330000593ADF81830937CADF820005B008DF844
:104340001A30D38A01A99B1B18BF01238DF81E3098
:104350000123ADF8223000EB4003C0EBC300800026
:1043600000F5F870ADF8260004A802F085FFE08A99
:10437000AF68B042BDF8041042D0A38AB5F86060BF
:10438000B5F87C209E428CBFF31A9B1B4FEA40007D
:104390008CBF02FB137202FB037280B200F010FBB1
:1043A000ADF81C009DF81C3001A903F0010304A81E
:1043B0008DF8243002F06CFC064640BBA37C23B988
:1043C000BDF804305B08E38123824FF6FF73E28A75
:1043D0009A420BD1AA68BDF80410BDF80C0000F099
:1043E000FAFAB5F860304008E082A3824FF6FF7316
:1043F00023836383A383E383238430460BB0F0BD20
:10440000B7FBF1F201FB1272ADF81C20CAE71F26C0
:10441000F3E701221146FEF77FBE0000082805D110
:10442000064B9B6C43B193F87F007047044B53F8E5
:1044300020300BB15B69F5E705207047880C002040
:10444000880D0020022310B580F86D3090F882307E
:10445000044643F0010280F88220A0F85C104A1E56
:10446000B0F8600092B2904204D143F0090384F89E
:10447000823010BD8842FCD1B4F8780000F0D8FC3E
:1044800094F8823043F00803F1E70B4601461846E2
:10449000FFF722BC012002F06BBF00F1202303F5DF
:1044A00080331B885380831C9BB203F1202303F5C8
:1044B00080331B889380031D9BB203F1202303F5F7
:1044C00080331B88D380831D9BB203F1202303F527
:1044D00080331B88138100F108039BB203F1202372
:1044E00003F580331B78937200F109039BB203F14B
:1044F000202303F580331B88938100F10B039BB2CB
:1045000003F1202303F580331B88D38100F10D03D1
:104510009BB203F1202303F580331B88138200F143
:104520000F039BB203F1202303F580331B885382D2
:1045300000F111039BB203F1202303F580331B88A4
:10454000938200F113039BB203F1202303F5803320
:1045500015301B8880B200F12020D38200F5803016
:1045600003881383704700F1202303F580331B88F1
:104570005380831C9BB203F1202303F580331B88F7
:104580009380031D9BB203F1202303F580331B8826
:10459000D380831D9BB203F1202303F580331B8856
:1045A000138100F108039BB203F1202303F580334C
:1045B0001B78937200F109039BB203F1202303F5EA
:1045C00080331B88938100F10B039BB203F12023FE
:1045D00003F580331B88D38100F10D039BB203F1F7
:1045E000202303F580331B88138200F10F039BB255
:1045F00003F1202303F580331B88538200F111035C
:104600009BB203F1202303F580331B88938200F1D2
:1046100013039BB203F1202303F5803315301B886D
:1046200080B200F12020D38200F58030038813830C
:10463000704700F1202303F580331B885380831CCF
:104640009BB203F1202303F580331B889380031D65
:104650009BB203F1202303F5803306301B8880B220
:1046600000F12020D38000F580300388138170474B
:1046700000F1202303F580331B885380831C9BB2F9
:1046800003F1202303F580331B889380031D9BB225
:1046900003F1202303F5803306301B8880B200F13C
:1046A0002020D38000F5803003881381704700F10B
:1046B000202303F580331B785370431C9BB203F116
:1046C000202303F5803302301B7880B200F12020D4
:1046D000937000F5803003889380704713460A4634
:1046E00031B100F1202101F58031581C04F0A4BA49
:1046F000704700002DE9F74F80468B460027A44BFA
:1047000093F8986401930BF1FF335FFA83FBBBF1DD
:10471000FF0F05D1019B83F8986403B0BDE8F08FCB
:1047200098F85A9019F0100940F02E8102211020BB
:1047300002F06EFE0C2205467243964BD15A06716A
:10474000B8F85040023BC480D35A89B29BB203816F
:104750009148125A92B2D00B2A736873C2F30520A3
:104760008E4AE872127885F805902A7398F85A20D4
:10477000D00705D558065CBF22F0010288F85A2000
:10478000082C00F0FC80080AC2B2AA7298F85AC03D
:104790001CF0020F10D013F0010F0DD12CF0020C01
:1047A00088F85AC0DFF804C25CF824E0BEF860C0A4
:1047B0004CF4807CAEF860C040F23F1EDFF8FCC1D4
:1047C00013EA0E0F9CF800C040F09480002800F01F
:1047D0009180734B01F00307DB7B88F84E30BCF10E
:1047E000000F11D06F4B1B78A3420DD1002F14BFC7
:1047F000012000206C4BD96901440CBF012000202E
:10480000D961196A01441962684B53F8243093F84E
:10481000A9309B0744BF043AAA72002F63D0022F2D
:1048200046D9032F5FD12402AB7A44F00104A4B22D
:10483000009322461C23214640F20B1002F0A0FEFA
:1048400081460C23CA462A7959495A43505A80B2A4
:1048500000F1202202F580321278182A0AF8022F7D
:1048600012D9192389F800300123524699F8001013
:10487000204602F029F8484602F09CFE287902F012
:1048800001F901236B7126E053434A49CA18C95CF8
:10489000009B994201D01E23E4E700230139013037
:1048A00089F80030C9B2936880B252469847DBE776
:1048B000220242F0010292B2114608234FF48070A6
:1048C00002F05EFEEA880280AA7A877082802A79E6
:1048D000827102F06FFE2946374803F0BDF80136B9
:1048E00006F007060FE7304602F0CCF80123002758
:1048F0006B71F0E7BCF1000F09D02A4A1278A2428E
:1049000005D1DC0705D5284A13680133136030460A
:10491000B5E7590704D5244A536801335360F6E7D5
:104920001A0704D5204A936801339360EFE79C0788
:1049300004D51D4A536901335361E8E7D90504D50D
:10494000194A936901339361E1E79A0604D5164A3F
:10495000136901331361DAE7DB0604D5124AD36821
:104960000133D360D3E70028D1D10F4B1FB99A6A26
:1049700001329A62CBE75A6A01325A62C7E798F865
:104980005730022BA7D1C2E7304602F07BF8A6E7EA
:10499000A80D0020B8290120BA290120C800014033
:1049A0001C000020840D0020580D0020880D0020E0
:1049B000BC2901205CE410005C0C0020540D002098
:1049C000B2FBF1F303FB11221044B0FBF1F201FB47
:1049D000120080B27047B2FBF1F303FB11220844CE
:1049E000801A90FBF1F201FB120080B2704790F840
:1049F0006D00003018BF01207047000070B55C24C6
:104A000040F27126427EB0F87C309B1AB0F87820D4
:104A1000013B54431E4A7343A55A90F87F20ADB220
:104A2000032A07D11B4A1268C2F30312C2F34C02D5
:104A30009B1A09E0184AA25A92B212F4004FF5D01C
:104A4000C2F34C0206FB1233AD054CBF01F5BE713B
:104A500001F5AE71B3FBF1F340F271224B43A3EBCE
:104A60005103B3FBF2F36FF41C72114459439629BE
:104A7000C8BF03F1FF33094A9DB2A5525C22B0F8CA
:104A800078104A430649505A834238BF555270BD88
:104A9000F421012000150040062201200C220120F3
:104AA0000A2201200F4B06290AD8DFE801F0101670
:104AB000181214040B000C4A526992F821200AB112
:104AC0009B7A00E01B7B837580F8813070471B78F0
:104AD000F9E79B79F7E71B7AF5E79B78F3E71B7912
:104AE000F1E700BFB5E21000880C002090F87000DC
:104AF000704700005C2330B5B0F87840094D5C4346
:104B0000645B14F00C0F0CBF012402241470B0F885
:104B1000782053435B5B13F0030F0CBF0123022388
:104B20000B7030BDF621012090F8742010B5022AD8
:104B300018D1112380F87130062380F872305C217F
:104B4000B0F87830144C59430B5BA2F1020C9BB2C5
:104B5000DCF1000242EB0C0223F00C0343EA820377
:104B60000B5307E0212380F87130002380F8723066
:104B7000002AE4D190F873406CB15C22B0F8783030
:104B800005495A43535A9BB223F00303022C08BF32
:104B900043F00103535210BDF6210120F7B504463E
:104BA0001E4603231746A4F85C100D4680F86D30AE
:104BB0000DF106020DF10701FFF79CFF0FB99DF8FB
:104BC000077084F873700EB99DF80660B4F8602021
:104BD0006B1E9BB29A4284F8746007D194F88230BD
:104BE00043F0080384F8823003B0F0BDAA42FBD141
:104BF0002046FFF799FFF1E7A0F86810A0F86A20B7
:104C000070470000F0B5B0F85E408CB3194A1A4BFB
:104C100092F82820B0F87C5033F8126090F86E209B
:104C2000090133F812C0154A154B6A435F68A2F5B3
:104C3000812342F20F72B1FBF5F107F1FF3E964579
:104C40008ABF06EB0C026F436A43A3F5B06301F120
:104C5000FF3194BFB3FBF7F393FBF2F3A14228BFFC
:104C60002146013B9BB28B4228BF0B46A0F85E3029
:104C7000F0BD00BF440C00209CE6100090D0030063
:104C80001C00002070B50A230646154640F60400B5
:104C900000220C4602F074FC03234670037044802B
:104CA0000F4A7DB1B5F854305B088380EB8E013B31
:104CB000C38052F82430B3F858300381BDE8704007
:104CC000FFF70ABA52F824301B682BB1DA898280C8
:104CD000DA881B89C280F0E78380C380EDE700BFDC
:104CE000880D002070B5064603200D461446FFF7D8
:104CF000E3FA90B1002229460C2340F6040002F0AA
:104D00003FFC04224670027045802268426062685F
:104D10008260BDE87040FFF7DFB970BD38B50C2286
:104D200005460A2340F603000C4602F029FC094A16
:104D3000057052F824204480B2F84210C180B2F8C5
:104D40004410018192F840200271BDE83840FFF71D
:104D5000C3B900BF880D002038B5302204460D4687
:104D60000423014640F6030002F00AFC057044806B
:104D7000BDE83840FFF7B0B92DE9F041040244F036
:104D8000010405469046A4B20E4621B3174F2146B2
:104D900057F8203040F20310B3F85C20B3F85E30CF
:104DA000D21A02F05BFD57F825302146B3F85C209B
:104DB0004FF4827002F052FD29460623082240F685
:104DC000030002F0DDFB067180F800804580BDE83D
:104DD000F041FFF781B9214640F2031002F094FD43
:104DE00021464FF4827002F08FFDE5E7880D002028
:104DF0000E4B10B553F820400002B4F85820B4F818
:104E00005A3000F47F419A4238BF1A4641F00101FE
:104E1000A4F8582040F2011002F020FDB4F86030F0
:104E200043F02003A4F8603010BD00BF880D0020BF
:104E3000164B70B553F82040064604F1670505216E
:104E40002846FFF713FA94F8683094F86720104961
:104E500042EA03225C2373435A5294F86A1094F88E
:104E6000692042EA01220B495A5294F86B2042EA27
:104E70000020094A80B29852D4F86730C4F86230F2
:104E800094F86B3084F8663070BD00BF880D002048
:104E90000E22012010220120122201202DE9F84FBC
:104EA00080460C461A200221934602F0B1FA0021F6
:104EB0008246102002F0ACFA0546BAF1000F2ED05F
:104EC00068B3184F57F82830D3F814902346544647
:104ED00003F118021E4603CE9642206061603346FD
:104EE00004F10804F6D133882380C5F808A0A5F89A
:104EF000048085F80CB072B6294609F1400009F12A
:104F0000280402F0A9FD62B64CB199F8843033B997
:104F100057F828305869BDE8F84FFEF709BEBDE8DC
:104F2000F88F00BF880D0020F8B5074608460D46EB
:104F300002F01AFC104B53F8276096F8A93013F0D2
:104F4000080405D03D21384601F008FD0020F8BDD9
:104F5000C307FBD596F8A730052BF7D100F0FE016B
:104F6000284602F0D1FB86F8A74029464FF481700D
:104F700002F0CAFCEAE700BF880D00202DE9F843E3
:104F8000074608461D46884602F0EEFB304E814635
:104F900056F8274094F8A9301B0707D594F8A73096
:104FA0000D2B03D03D21384601F0D8FC19F0010F3C
:104FB00003D094F8A7300D2B47D12023424600217F
:104FC000042002F0DDFA2A4652F8013F04F1950C64
:104FD000C4F87D3053680246C4F8813004F185037B
:104FE000194653F804EB634542F804EBF9D104F198
:104FF000750300F1100253F804CB8B4242F804CB46
:10500000F9D102F0D7FAAB7A6A7A124942EA03225E
:105010005C237B435A52297BEA7A42EA01220E49F9
:105020005A5272B656F8272092F8A93043F0080376
:1050300082F8A93062B60E234FF47A6284F8A73062
:1050400041464FF4817002F009FC0020BDE8F8836E
:10505000880D00202C2201202E22012070B504464C
:105060001D460E464FF4817002F04EFC0D4B6A78DF
:1050700053F824300F2183F8A520B3F86020304680
:1050800042F40072A3F8602002F03EFB2046FFF7D6
:10509000C5F9042803D16978204601F05FFC00209F
:1050A00070BD00BF880D00202DE9F84F044608466A
:1050B0000E4691469B4602F057FB0746DFF8FCA1DF
:1050C00031464FF481705AF8245002F01DFC17F05D
:1050D000010FD04600F0C58095F8A720043A122AA7
:1050E00000F2E080DFE802F0A9798131DE81DEDEC6
:1050F000DE0A0A0A0ADEDEDE8383830031464FF4CD
:10510000817002F001FC2046FFF788F903286CD17A
:105110005AF8243093F8A98018F0100865D183F864
:10512000A9804A46414620467FB2FFF725FE07F098
:10513000FE01304602F0E8FA85F8A78007F0FA0190
:105140003046BDE8F84F02F0DFBA5AF8243093F841
:10515000A930190700F1A68031464FF4817002F0A2
:10516000D3FBB9F11A0F0DD12046FFF757F90328E9
:1051700008D15AF82430186802230370BDE8F84FAC
:1051800002F018BA58F82430D3F80080B5F860302F
:105190005A060DD523F04003A5F860300220FFF732
:1051A0008BF828B16A69214628324846FFF76AFD24
:1051B000B9F11A0F06D1B5F8603043F40053A5F8E1
:1051C000603006E0B9F1200F03D198F80030012BD0
:1051D000F1D00021204601F0DFFB07F0FE01304650
:1051E00002F092FA002385F8A730BDE8F88FBBF1F2
:1051F000000F57D05AF8243093F8A930180751D42B
:105200006C6931464FF4817002F07EFBB4F878206F
:105210000523120242F0010292B211464FF485704A
:1052200002F0AEF90322027094F87420C27094F870
:10523000732080F804908270A0E75AF8243093F825
:10524000A93013F008092DD131464FF4817002F0D6
:105250005BFB07F0FE01304602F056FA85F8A79096
:10526000C3E7B9071ED5BBF1000F1BD05AF8243095
:1052700093F8A9301A0715D495F8A830032B03D05A
:10528000102B06D00F2BB0D131464FF4817002F0B5
:105290003BFB07F0FD01304602F036FA002385F8AB
:1052A000A830A2E758F8243093F8A9301B079CD502
:1052B0002046BDE8F84F3D2101F050BB880D00208D
:1052C00008B59A780123FFF7EFFE002008BD08B566
:1052D0005A780023FFF7E8FE002008BD2DE9F843C7
:1052E000804608460C4602F03FFA274B054653F825
:1052F0002860994696F8A92012F0080F06D03D21A3
:10530000404601F02BFB0020BDE8F8834046FFF744
:1053100085F80428F7D1AA07F5D445F00207FFB2B3
:105320003946204602F0F0F9EB0704D521464FF448
:10533000817002F0E9FA3946204602F0E5F945F0BD
:105340000601C9B2204602F0DFF9052386F8A8302D
:1053500072B659F8282092F8A93043F00C0382F86D
:10536000A9307069FFF7C2FB62B630B1B6F86030A1
:1053700043F00403A6F86030C5E7224621464FF407
:10538000837002F027F9BEE7880D0020F8B50646C5
:1053900008460D4602F0E8F9154B074653F826403B
:1053A00094F8A930190709D594F8A7300E2B05D029
:1053B000102B03D03D21304601F0D0FAFA0794F8C3
:1053C000A7300DD50E2B0DD0102B0ED111232A4650
:1053D00084F8A73029464FF4837002F0FBF804E00C
:1053E0000E2BF3D10F2384F8A7300020F8BD00BFA7
:1053F000880D00202DE9F8438046084699460D4661
:1054000002F0B2F9294E074656F8284094F8A93020
:105410001A0709D594F8A830072B05D03D2140463E
:1054200001F09CFA002038E04046FEF7F7FF042820
:10543000F8D1BB0703D594F8A830072BF2D147F079
:1054400002012846C9B202F05FF947F0060128467A
:10545000C9B202F059F9082356F8282084F8A83078
:10546000A9F10203936029464FF4817002F04CFACF
:1054700072B656F8282092F8A93043F00C0382F84F
:10548000A9306069FFF732FB62B640B1B4F8603012
:1054900043F00403A4F860300120BDE8F8832A46F5
:1054A00029464FF4837002F095F8F5E7880D002047
:1054B0002DE9F0470646084699460D4602F054F994
:1054C000894B804653F826409A4694F8A97017F005
:1054D000080F0AD094F8A7300D2B06D03D21304696
:1054E00001F03CFA0020BDE8F08718F0010FF9D078
:1054F00094F8A730013B142BF4D801A252F823F002
:1055000079551000E5541000E55410000F561000B6
:1055100079561000E5541000A9551000E55410000C
:10552000E5541000E5541000E5541000E554100057
:1055300055551000E5541000E5541000E5541000D6
:10554000E5541000E5541000E55410009F5610007B
:105550009F56100017F01007C4D11A223946304662
:1055600084F8A970FFF708FC08F0FE01284602F055
:10557000CBF884F8A770B5E799F801300E2BB1D1BC
:1055800029464FF4817002F0BFF904F16D023146F3
:105590001A20FFF7A7FB08F0FE01284602F0B4F836
:1055A000002384F8A7309DE799F801300F2B99D19B
:1055B000B4F86030294643F40053A4F860304FF447
:1055C000817002F0A1F93046FEF728FF032807D1C9
:1055D0005AF8263018680223037001F0EBFF81E7C8
:1055E000B4F860305A060DD523F04003A4F86030BB
:1055F0000220FEF761FE28B16269314628321A2086
:10560000FFF740FB0021304601F0C6F9C3E799F8E7
:105610000130142B7FF466AF4FF48170294602F0FD
:1056200073F90123062084F85630FEF745FE002862
:10563000B1D094F857309B07ADD40C233E223146AD
:1056400040F6040001F09CFF07220270B4F84C20E1
:1056500046800281B4F854204281B4F84A20828006
:10566000B4F85220C280FEF737FD94F8573043F06B
:10567000020384F857308EE799F80130122B7FF43B
:1056800031AF08F0FE01284602F03EF8002329461B
:1056900084F8A7304FF4817002F036F922E766698A
:1056A00029464FF4817002F02FF9B6F878200523CF
:1056B000120242F0010292B211464FF4857001F0DD
:1056C0005FFF0322027096F87420C27096F8732070
:1056D00082701A22027101F06DFFB4F8603023F479
:1056E0008053A4F86030FDE6880D002007B5074B15
:1056F0000C22009340F213436946C0B2ADF8043067
:10570000FFF7CCFB03B05DF804FB00BF0C0962039C
:105710002DE9F843064608461F46894602F024F85C
:105720001F4B804653F8264094F8A95015F0080501
:1057300006D03D21304601F011F90020BDE8F88384
:105740007978B4F8602084F840107988C2F3400377
:10575000A4F84210B98842F0020210F0010FA4F838
:105760004410A4F8602014D094F8A720022A10D185
:1057700049464FF4817002F0C7F831462846FFF7DA
:10578000CDFA84F8A75008F0FE01484601F0BCFFAE
:10579000D3E7002BD1D13046FFF7A8FFCDE700BFFC
:1057A000880D002013B55C210B2241430B4C8DF872
:1057B00004200B5B23F480731B041B0C0B53084B5E
:1057C00053F82010C0B291F8A93023F0020381F8F9
:1057D000A93001A9FFF762FB02B010BDF42101203E
:1057E000880D00202DE9F041044608460E4601F0E0
:1057F000BBFF2F4F10F0010F57F82450B84626D0AA
:1058000095F8A7300B2B22D131464FF4817002F06E
:105810007BF85C22624327492046535A23F44073A5
:105820001B041B0C53520C2385F8A730FFF7BAFF5B
:1058300072B657F8242092F8A93023F0030343F0FE
:10584000080382F8A93062B60020BDE8F08195F81F
:10585000A830062B22D1820720D531464FF4817023
:1058600002F052F85C22624312494FF48170535A9D
:1058700023F440731B041B0C535258F82420314668
:1058800092F8A93023F0230382F8A93007234FF4BC
:105890007A6285F8A83001F0E1FFD5E795F8A930E4
:1058A0001B07D1D53D21204601F058F8CCE700BFB9
:1058B000880D0020F421012007B5062201A9C0B2FD
:1058C0008DF80420FFF7EAFA03B05DF804FB00004E
:1058D0002DE9F04104460846884601F045FF3E4D5B
:1058E000064655F8247097F8A9301A070ED597F890
:1058F000A730122B0AD097F8A8300B2B06D03D21E9
:10590000204601F02BF80020BDE8F08106F00F03DF
:105910000F2B0CD12046FEF781FD0428F3D197F818
:10592000A8300B2BEFD1204601F046F8EBE74146BB
:105930004FF4817001F0E8FF2046FEF76FFD042868
:105940002BD10C2387F8A830F30706D54FF47A62E1
:1059500041464FF4817001F081FF204601F02CF8A0
:105960002046FFF7A9FF72B655F8242092F8A93017
:1059700023F0080382F8A93062B655F8241091F894
:10598000A93013F0100221D023F0100381F8A930C0
:1059900020460021FFF7E0F9B5E776B206F0FE01F8
:1059A000404601F0B1FE002387F8A73072B655F8E3
:1059B000242092F8A93023F02C0382F8A93062B693
:1059C00006F0FA01404601F09FFED6E7012120468D
:1059D000FFF7D2F997E700BF880D0020154B13B5EC
:1059E00053F82030C0B2B3F8604014F0010F03D078
:1059F00093F86D40640701D40D290CD911238DF85B
:105A000006201A468DF804308DF8051001A9FFF71D
:105A100045FA02B010BD0D2405298DF804408DF81B
:105A2000052001D0032902D1002283F8A9200D22EC
:105A3000ECE700BF880D00202DE9F04FB2F1000A1D
:105A40001C4614BF02230023DFF8D09185B059F81B
:105A50002050074608468846019301F085FEA61EA1
:105A60008346BAF1000F0ED00023737059F8273027
:105A700093F8A93019071BD504237370BAF1000FEE
:105A80001FD13D2191E07378002BEFD07378013B5B
:105A9000042B16D801A252F823F000BFBF5B100000
:105AA000B35B1000A95B1000835A1000E35A10008A
:105AB0006869FEF79CFF40B102237370BAF1000FD2
:105AC00077D0019805B0BDE8F08F1BF0020F0AD027
:105AD00095F8A8300F2B06D005237370BAF1000F8C
